{
  "abi": [
    {
      "inputs": [],
      "stateMutability": "nonpayable",
      "type": "constructor"
    },
    {
      "inputs": [],
      "name": "AccessControlBadConfirmation",
      "type": "error"
    },
    {
      "inputs": [
        {
          "internalType": "address",
          "name": "account",
          "type": "address"
        },
        {
          "internalType": "bytes32",
          "name": "neededRole",
          "type": "bytes32"
        }
      ],
      "name": "AccessControlUnauthorizedAccount",
      "type": "error"
    },
    {
      "inputs": [
        {
          "internalType": "address",
          "name": "spender",
          "type": "address"
        },
        {
          "internalType": "uint256",
          "name": "allowance",
          "type": "uint256"
        },
        {
          "internalType": "uint256",
          "name": "needed",
          "type": "uint256"
        }
      ],
      "name": "ERC20InsufficientAllowance",
      "type": "error"
    },
    {
      "inputs": [
        {
          "internalType": "address",
          "name": "sender",
          "type": "address"
        },
        {
          "internalType": "uint256",
          "name": "balance",
          "type": "uint256"
        },
        {
          "internalType": "uint256",
          "name": "needed",
          "type": "uint256"
        }
      ],
      "name": "ERC20InsufficientBalance",
      "type": "error"
    },
    {
      "inputs": [
        {
          "internalType": "address",
          "name": "approver",
          "type": "address"
        }
      ],
      "name": "ERC20InvalidApprover",
      "type": "error"
    },
    {
      "inputs": [
        {
          "internalType": "address",
          "name": "receiver",
          "type": "address"
        }
      ],
      "name": "ERC20InvalidReceiver",
      "type": "error"
    },
    {
      "inputs": [
        {
          "internalType": "address",
          "name": "sender",
          "type": "address"
        }
      ],
      "name": "ERC20InvalidSender",
      "type": "error"
    },
    {
      "inputs": [
        {
          "internalType": "address",
          "name": "spender",
          "type": "address"
        }
      ],
      "name": "ERC20InvalidSpender",
      "type": "error"
    },
    {
      "anonymous": false,
      "inputs": [
        {
          "indexed": true,
          "internalType": "address",
          "name": "owner",
          "type": "address"
        },
        {
          "indexed": true,
          "internalType": "address",
          "name": "spender",
          "type": "address"
        },
        {
          "indexed": false,
          "internalType": "uint256",
          "name": "value",
          "type": "uint256"
        }
      ],
      "name": "Approval",
      "type": "event"
    },
    {
      "anonymous": false,
      "inputs": [
        {
          "indexed": true,
          "internalType": "address",
          "name": "facilitatorAddress",
          "type": "address"
        },
        {
          "indexed": true,
          "internalType": "bytes32",
          "name": "label",
          "type": "bytes32"
        },
        {
          "indexed": false,
          "internalType": "uint256",
          "name": "bucketCapacity",
          "type": "uint256"
        }
      ],
      "name": "FacilitatorAdded",
      "type": "event"
    },
    {
      "anonymous": false,
      "inputs": [
        {
          "indexed": true,
          "internalType": "address",
          "name": "facilitatorAddress",
          "type": "address"
        },
        {
          "indexed": false,
          "internalType": "uint256",
          "name": "oldCapacity",
          "type": "uint256"
        },
        {
          "indexed": false,
          "internalType": "uint256",
          "name": "newCapacity",
          "type": "uint256"
        }
      ],
      "name": "FacilitatorBucketCapacityUpdated",
      "type": "event"
    },
    {
      "anonymous": false,
      "inputs": [
        {
          "indexed": true,
          "internalType": "address",
          "name": "facilitatorAddress",
          "type": "address"
        },
        {
          "indexed": false,
          "internalType": "uint256",
          "name": "oldLevel",
          "type": "uint256"
        },
        {
          "indexed": false,
          "internalType": "uint256",
          "name": "newLevel",
          "type": "uint256"
        }
      ],
      "name": "FacilitatorBucketLevelUpdated",
      "type": "event"
    },
    {
      "anonymous": false,
      "inputs": [
        {
          "indexed": true,
          "internalType": "address",
          "name": "facilitatorAddress",
          "type": "address"
        }
      ],
      "name": "FacilitatorRemoved",
      "type": "event"
    },
    {
      "anonymous": false,
      "inputs": [
        {
          "indexed": true,
          "internalType": "bytes32",
          "name": "role",
          "type": "bytes32"
        },
        {
          "indexed": true,
          "internalType": "bytes32",
          "name": "previousAdminRole",
          "type": "bytes32"
        },
        {
          "indexed": true,
          "internalType": "bytes32",
          "name": "newAdminRole",
          "type": "bytes32"
        }
      ],
      "name": "RoleAdminChanged",
      "type": "event"
    },
    {
      "anonymous": false,
      "inputs": [
        {
          "indexed": true,
          "internalType": "bytes32",
          "name": "role",
          "type": "bytes32"
        },
        {
          "indexed": true,
          "internalType": "address",
          "name": "account",
          "type": "address"
        },
        {
          "indexed": true,
          "internalType": "address",
          "name": "sender",
          "type": "address"
        }
      ],
      "name": "RoleGranted",
      "type": "event"
    },
    {
      "anonymous": false,
      "inputs": [
        {
          "indexed": true,
          "internalType": "bytes32",
          "name": "role",
          "type": "bytes32"
        },
        {
          "indexed": true,
          "internalType": "address",
          "name": "account",
          "type": "address"
        },
        {
          "indexed": true,
          "internalType": "address",
          "name": "sender",
          "type": "address"
        }
      ],
      "name": "RoleRevoked",
      "type": "event"
    },
    {
      "anonymous": false,
      "inputs": [
        {
          "indexed": true,
          "internalType": "address",
          "name": "from",
          "type": "address"
        },
        {
          "indexed": true,
          "internalType": "address",
          "name": "to",
          "type": "address"
        },
        {
          "indexed": false,
          "internalType": "uint256",
          "name": "value",
          "type": "uint256"
        }
      ],
      "name": "Transfer",
      "type": "event"
    },
    {
      "inputs": [],
      "name": "BUCKET_MANAGER_ROLE",
      "outputs": [
        {
          "internalType": "bytes32",
          "name": "",
          "type": "bytes32"
        }
      ],
      "stateMutability": "pure",
      "type": "function"
    },
    {
      "inputs": [],
      "name": "FACILITATOR_MANAGER_ROLE",
      "outputs": [
        {
          "internalType": "bytes32",
          "name": "",
          "type": "bytes32"
        }
      ],
      "stateMutability": "pure",
      "type": "function"
    },
    {
      "inputs": [
        {
          "internalType": "address",
          "name": "facilitatorAddress",
          "type": "address"
        },
        {
          "internalType": "string",
          "name": "facilitatorLabel",
          "type": "string"
        },
        {
          "internalType": "uint128",
          "name": "bucketCapacity",
          "type": "uint128"
        }
      ],
      "name": "addFacilitator",
      "outputs": [],
      "stateMutability": "nonpayable",
      "type": "function"
    },
    {
      "inputs": [
        {
          "internalType": "address",
          "name": "owner",
          "type": "address"
        },
        {
          "internalType": "address",
          "name": "spender",
          "type": "address"
        }
      ],
      "name": "allowance",
      "outputs": [
        {
          "internalType": "uint256",
          "name": "",
          "type": "uint256"
        }
      ],
      "stateMutability": "view",
      "type": "function"
    },
    {
      "inputs": [
        {
          "internalType": "address",
          "name": "spender",
          "type": "address"
        },
        {
          "internalType": "uint256",
          "name": "value",
          "type": "uint256"
        }
      ],
      "name": "approve",
      "outputs": [
        {
          "internalType": "bool",
          "name": "",
          "type": "bool"
        }
      ],
      "stateMutability": "nonpayable",
      "type": "function"
    },
    {
      "inputs": [
        {
          "internalType": "address",
          "name": "account",
          "type": "address"
        }
      ],
      "name": "balanceOf",
      "outputs": [
        {
          "internalType": "uint256",
          "name": "",
          "type": "uint256"
        }
      ],
      "stateMutability": "view",
      "type": "function"
    },
    {
      "inputs": [
        {
          "internalType": "uint256",
          "name": "value",
          "type": "uint256"
        }
      ],
      "name": "burn",
      "outputs": [],
      "stateMutability": "nonpayable",
      "type": "function"
    },
    {
      "inputs": [
        {
          "internalType": "address",
          "name": "account",
          "type": "address"
        },
        {
          "internalType": "uint256",
          "name": "value",
          "type": "uint256"
        }
      ],
      "name": "burnFrom",
      "outputs": [],
      "stateMutability": "nonpayable",
      "type": "function"
    },
    {
      "inputs": [],
      "name": "decimals",
      "outputs": [
        {
          "internalType": "uint8",
          "name": "",
          "type": "uint8"
        }
      ],
      "stateMutability": "view",
      "type": "function"
    },
    {
      "inputs": [
        {
          "internalType": "address",
          "name": "facilitator",
          "type": "address"
        }
      ],
      "name": "getFacilitator",
      "outputs": [
        {
          "components": [
            {
              "internalType": "uint128",
              "name": "bucketCapacity",
              "type": "uint128"
            },
            {
              "internalType": "uint128",
              "name": "bucketLevel",
              "type": "uint128"
            },
            {
              "internalType": "string",
              "name": "label",
              "type": "string"
            }
          ],
          "internalType": "struct IGhoToken.Facilitator",
          "name": "",
          "type": "tuple"
        }
      ],
      "stateMutability": "view",
      "type": "function"
    },
    {
      "inputs": [
        {
          "internalType": "address",
          "name": "facilitator",
          "type": "address"
        }
      ],
      "name": "getFacilitatorBucket",
      "outputs": [
        {
          "internalType": "uint256",
          "name": "",
          "type": "uint256"
        },
        {
          "internalType": "uint256",
          "name": "",
          "type": "uint256"
        }
      ],
      "stateMutability": "view",
      "type": "function"
    },
    {
      "inputs": [],
      "name": "getFacilitatorsList",
      "outputs": [
        {
          "internalType": "address[]",
          "name": "",
          "type": "address[]"
        }
      ],
      "stateMutability": "view",
      "type": "function"
    },
    {
      "inputs": [
        {
          "internalType": "bytes32",
          "name": "role",
          "type": "bytes32"
        }
      ],
      "name": "getRoleAdmin",
      "outputs": [
        {
          "internalType": "bytes32",
          "name": "",
          "type": "bytes32"
        }
      ],
      "stateMutability": "view",
      "type": "function"
    },
    {
      "inputs": [
        {
          "internalType": "bytes32",
          "name": "role",
          "type": "bytes32"
        },
        {
          "internalType": "address",
          "name": "account",
          "type": "address"
        }
      ],
      "name": "grantRole",
      "outputs": [],
      "stateMutability": "nonpayable",
      "type": "function"
    },
    {
      "inputs": [
        {
          "internalType": "bytes32",
          "name": "role",
          "type": "bytes32"
        },
        {
          "internalType": "address",
          "name": "account",
          "type": "address"
        }
      ],
      "name": "hasRole",
      "outputs": [
        {
          "internalType": "bool",
          "name": "",
          "type": "bool"
        }
      ],
      "stateMutability": "view",
      "type": "function"
    },
    {
      "inputs": [
        {
          "internalType": "address",
          "name": "to",
          "type": "address"
        },
        {
          "internalType": "uint256",
          "name": "amount",
          "type": "uint256"
        }
      ],
      "name": "mint",
      "outputs": [],
      "stateMutability": "nonpayable",
      "type": "function"
    },
    {
      "inputs": [],
      "name": "name",
      "outputs": [
        {
          "internalType": "string",
          "name": "",
          "type": "string"
        }
      ],
      "stateMutability": "view",
      "type": "function"
    },
    {
      "inputs": [
        {
          "internalType": "address",
          "name": "facilitatorAddress",
          "type": "address"
        }
      ],
      "name": "removeFacilitator",
      "outputs": [],
      "stateMutability": "nonpayable",
      "type": "function"
    },
    {
      "inputs": [
        {
          "internalType": "bytes32",
          "name": "role",
          "type": "bytes32"
        },
        {
          "internalType": "address",
          "name": "callerConfirmation",
          "type": "address"
        }
      ],
      "name": "renounceRole",
      "outputs": [],
      "stateMutability": "nonpayable",
      "type": "function"
    },
    {
      "inputs": [
        {
          "internalType": "bytes32",
          "name": "role",
          "type": "bytes32"
        },
        {
          "internalType": "address",
          "name": "account",
          "type": "address"
        }
      ],
      "name": "revokeRole",
      "outputs": [],
      "stateMutability": "nonpayable",
      "type": "function"
    },
    {
      "inputs": [
        {
          "internalType": "address",
          "name": "facilitator",
          "type": "address"
        },
        {
          "internalType": "uint128",
          "name": "newCapacity",
          "type": "uint128"
        }
      ],
      "name": "setFacilitatorBucketCapacity",
      "outputs": [],
      "stateMutability": "nonpayable",
      "type": "function"
    },
    {
      "inputs": [],
      "name": "symbol",
      "outputs": [
        {
          "internalType": "string",
          "name": "",
          "type": "string"
        }
      ],
      "stateMutability": "view",
      "type": "function"
    },
    {
      "inputs": [],
      "name": "totalSupply",
      "outputs": [
        {
          "internalType": "uint256",
          "name": "",
          "type": "uint256"
        }
      ],
      "stateMutability": "view",
      "type": "function"
    },
    {
      "inputs": [
        {
          "internalType": "address",
          "name": "to",
          "type": "address"
        },
        {
          "internalType": "uint256",
          "name": "value",
          "type": "uint256"
        }
      ],
      "name": "transfer",
      "outputs": [
        {
          "internalType": "bool",
          "name": "",
          "type": "bool"
        }
      ],
      "stateMutability": "nonpayable",
      "type": "function"
    },
    {
      "inputs": [
        {
          "internalType": "address",
          "name": "from",
          "type": "address"
        },
        {
          "internalType": "address",
          "name": "to",
          "type": "address"
        },
        {
          "internalType": "uint256",
          "name": "value",
          "type": "uint256"
        }
      ],
      "name": "transferFrom",
      "outputs": [
        {
          "internalType": "bool",
          "name": "",
          "type": "bool"
        }
      ],
      "stateMutability": "nonpayable",
      "type": "function"
    }
  ],
  "bytecode": {
    "object": "0x6080346200030c576040906001600160401b0390808301828111828210176200020c578352600781526020916626bcaa37b5b2b760c91b838301528351848101818110838211176200020c578552600390818152624d544b60e81b858201528351908382116200020c578254916001958684811c9416801562000301575b88851014620002eb578190601f9485811162000295575b5088908583116001146200022e5760009262000222575b505060001982861b1c191690861b1783555b80519384116200020c5760049586548681811c9116801562000201575b82821014620001ec57838111620001a1575b508092851160011462000133575093839491849260009562000127575b50501b92600019911b1c19161790555b516111719081620003128239f35b01519350388062000109565b92919084601f1981168860005285600020956000905b898383106200018657505050106200016b575b50505050811b01905562000119565b01519060f884600019921b161c19169055388080806200015c565b85870151895590970196948501948893509081019062000149565b87600052816000208480880160051c820192848910620001e2575b0160051c019087905b828110620001d5575050620000ec565b60008155018790620001c5565b92508192620001bc565b602288634e487b7160e01b6000525260246000fd5b90607f1690620000da565b634e487b7160e01b600052604160045260246000fd5b015190503880620000ab565b90889350601f19831691876000528a6000209260005b8c8282106200027e575050841162000265575b505050811b018355620000bd565b015160001983881b60f8161c1916905538808062000257565b8385015186558c9790950194938401930162000244565b90915085600052886000208580850160051c8201928b8610620002e1575b918a91869594930160051c01915b828110620002d157505062000094565b600081558594508a9101620002c1565b92508192620002b3565b634e487b7160e01b600052602260045260246000fd5b93607f16936200007d565b600080fdfe608060408181526004918236101561001657600080fd5b600092833560e01c91826306fdde0314610afd57508163095ea7b3146109f857816318160ddd146109bb5781631ec90f2e146108e557816323b872dd1461088a578163248a9ca3146108505781632f2ff15d146101ae578163313ce5671461081657816336568abe146101ae57816340c10f191461071157816342966c68146106d5578163433bef44146106d0578163550d9964146106d057816370a082311461066f57816379cc67901461061e5781637fc24def1461058957816391d148541461054657816395d89b41146103da578163a11812ba1461039e578163a9059cbb1461034f578163aa02f94a14610308578163af93df57146102b2578163d46ec0ed146101b357508063d547741f146101ae5763dd62ed3e1461013857600080fd5b346101aa57807ffffffffffffffffffffffffffffffffffffffffffffffffffffffffffffffffc3601126101aa5780602092610172610c89565b61017a610cb1565b73ffffffffffffffffffffffffffffffffffffffff91821683526001865283832091168252845220549051908152f35b5080fd5b610cd4565b8284346102af57602090817ffffffffffffffffffffffffffffffffffffffffffffffffffffffffffffffffc3601126102af576101ee610c89565b5060608380516101fd81610d47565b8381528385820152015282519261021384610d47565b8184528284019382855281519284840184811067ffffffffffffffff8211176102835761027f959697508352835281810192835281519585879687526fffffffffffffffffffffffffffffffff8093511690870152511690840152516060808401526080830190610c2b565b0390f35b60248260418a7f4e487b7100000000000000000000000000000000000000000000000000000000835252fd5b80fd5b5050346101aa577ffffffffffffffffffffffffffffffffffffffffffffffffffffffffffffffffc3601126102af576102e9610c89565b506024356fffffffffffffffffffffffffffffffff8116036102af5780f35b8284346102af5760207ffffffffffffffffffffffffffffffffffffffffffffffffffffffffffffffffc3601126102af57610341610c89565b508151908082526020820152f35b5050346101aa57807ffffffffffffffffffffffffffffffffffffffffffffffffffffffffffffffffc3601126101aa5760209061039761038d610c89565b6024359033610dd3565b5160018152f35b83346102af5760207ffffffffffffffffffffffffffffffffffffffffffffffffffffffffffffffffc3601126102af576103d6610c89565b5080f35b8284346102af57807ffffffffffffffffffffffffffffffffffffffffffffffffffffffffffffffffc3601126102af5781519181845492600184811c9181861695861561053c575b6020968785108114610510579087899a92868b999a9b5291826000146104c857505060011461046d575b858861027f8961045e848a0385610d92565b51928284938452830190610c2b565b815286935091907f8a35acfbc15ff81a39ae7d344fd709f28e8600b4aa8c65c6b64bfe7fe36bd19b5b8284106104b0575050508201018161045e61027f8861044c565b8054848a018601528895508794909301928101610496565b7fffffffffffffffffffffffffffffffffffffffffffffffffffffffffffffff00168882015294151560051b8701909401945085935061045e925061027f915089905061044c565b60248360228c7f4e487b7100000000000000000000000000000000000000000000000000000000835252fd5b92607f1692610422565b5050346101aa57807ffffffffffffffffffffffffffffffffffffffffffffffffffffffffffffffffc3601126101aa57602090610581610cb1565b505160018152f35b8390346101aa5760607ffffffffffffffffffffffffffffffffffffffffffffffffffffffffffffffffc3601126101aa576105c2610c89565b506024359067ffffffffffffffff9081831161061a573660238401121561061a5782013590811161061657369101602401116102af576044356fffffffffffffffffffffffffffffffff8116036102af5780f35b8280fd5b8380fd5b5050346101aa577ffffffffffffffffffffffffffffffffffffffffffffffffffffffffffffffffc3601126102af5761066c610658610c89565b60243590610667823383610f14565b611069565b80f35b5050346101aa5760207ffffffffffffffffffffffffffffffffffffffffffffffffffffffffffffffffc3601126101aa578060209273ffffffffffffffffffffffffffffffffffffffff6106c1610c89565b16815280845220549051908152f35b610d0d565b8390346101aa5760207ffffffffffffffffffffffffffffffffffffffffffffffffffffffffffffffffc3601126101aa5761066c903533611069565b9190503461061657807ffffffffffffffffffffffffffffffffffffffffffffffffffffffffffffffffc3601126106165761074a610c89565b9073ffffffffffffffffffffffffffffffffffffffff60243592169283156107e857600254908382018092116107bc575084927fddf252ad1be2c89b69c2b068fc378daa952ba7f163c4a11628f55a4df523b3ef9260209260025585855284835280852082815401905551908152a380f35b8560116024927f4e487b7100000000000000000000000000000000000000000000000000000000835252fd5b8460249251917fec442f05000000000000000000000000000000000000000000000000000000008352820152fd5b5050346101aa57817ffffffffffffffffffffffffffffffffffffffffffffffffffffffffffffffffc3601126101aa576020905160128152f35b5050346101aa5760207ffffffffffffffffffffffffffffffffffffffffffffffffffffffffffffffffc3601126101aa5751908152602090f35b5050346101aa5760607ffffffffffffffffffffffffffffffffffffffffffffffffffffffffffffffffc3601126101aa576020906103976108c9610c89565b6108d1610cb1565b604435916108e0833383610f14565b610dd3565b905082346102af57807ffffffffffffffffffffffffffffffffffffffffffffffffffffffffffffffffc3601126102af578251906020908183019383851067ffffffffffffffff86111761098f57509093929182845281815283519485948186019282875251809352850193925b82811061096257505050500390f35b835173ffffffffffffffffffffffffffffffffffffffff1685528695509381019392810192600101610953565b9060416024927f4e487b7100000000000000000000000000000000000000000000000000000000835252fd5b5050346101aa57817ffffffffffffffffffffffffffffffffffffffffffffffffffffffffffffffffc3601126101aa576020906002549051908152f35b90503461061657817ffffffffffffffffffffffffffffffffffffffffffffffffffffffffffffffffc36011261061657610a30610c89565b602435903315610ace5773ffffffffffffffffffffffffffffffffffffffff16918215610a9f57508083602095338152600187528181208582528752205582519081527f8c5be1e5ebec7d5bd14f71427d1e84f3dd0314c0f7b2291e5b200ac8c7c3b925843392a35160018152f35b602490858551917f94280d62000000000000000000000000000000000000000000000000000000008352820152fd5b602483868651917fe602df05000000000000000000000000000000000000000000000000000000008352820152fd5b8484346101aa57817ffffffffffffffffffffffffffffffffffffffffffffffffffffffffffffffffc3601126101aa578160035492600184811c91818616958615610c21575b6020968785108114610510578899509688969785829a529182600014610bdc575050600114610b80575b50505061027f929161045e910385610d92565b9190869350600383527fc2575a0e9e593c00f959f8c92f12db2869c3395a3b0502d05e2516446f71f85b5b828410610bc4575050508201018161045e61027f610b6d565b8054848a018601528895508794909301928101610bab565b7fffffffffffffffffffffffffffffffffffffffffffffffffffffffffffffff00168782015293151560051b8601909301935084925061045e915061027f9050610b6d565b92607f1692610b43565b919082519283825260005b848110610c755750507fffffffffffffffffffffffffffffffffffffffffffffffffffffffffffffffe0601f8460006020809697860101520116010190565b602081830181015184830182015201610c36565b6004359073ffffffffffffffffffffffffffffffffffffffff82168203610cac57565b600080fd5b6024359073ffffffffffffffffffffffffffffffffffffffff82168203610cac57565b34610cac5760407ffffffffffffffffffffffffffffffffffffffffffffffffffffffffffffffffc360112610cac57610d0b610cb1565b005b34610cac5760007ffffffffffffffffffffffffffffffffffffffffffffffffffffffffffffffffc360112610cac57602060405160008152f35b6060810190811067ffffffffffffffff821117610d6357604052565b7f4e487b7100000000000000000000000000000000000000000000000000000000600052604160045260246000fd5b90601f7fffffffffffffffffffffffffffffffffffffffffffffffffffffffffffffffe0910116810190811067ffffffffffffffff821117610d6357604052565b9173ffffffffffffffffffffffffffffffffffffffff808416928315610ee35716928315610eb25760009083825281602052604082205490838210610e5a575091604082827fddf252ad1be2c89b69c2b068fc378daa952ba7f163c4a11628f55a4df523b3ef958760209652828652038282205586815220818154019055604051908152a3565b6040517fe450d38c00000000000000000000000000000000000000000000000000000000815273ffffffffffffffffffffffffffffffffffffffff919091166004820152602481019190915260448101839052606490fd5b60246040517fec442f0500000000000000000000000000000000000000000000000000000000815260006004820152fd5b60246040517f96c6fd1e00000000000000000000000000000000000000000000000000000000815260006004820152fd5b9173ffffffffffffffffffffffffffffffffffffffff8093169160009383855260016020526040938486209183169182875260205284862054927fffffffffffffffffffffffffffffffffffffffffffffffffffffffffffffffff8403610f7f575b50505050505050565b84841061101357508015610fe3578115610fb357855260016020528385209085526020520391205538808080808080610f76565b6024868651907f94280d620000000000000000000000000000000000000000000000000000000082526004820152fd5b6024868651907fe602df050000000000000000000000000000000000000000000000000000000082526004820152fd5b85517ffb8f41b200000000000000000000000000000000000000000000000000000000815273ffffffffffffffffffffffffffffffffffffffff9190911660048201526024810184905260448101859052606490fd5b9073ffffffffffffffffffffffffffffffffffffffff8216908115610ee357600092828452836020526040842054908282106110e35750817fddf252ad1be2c89b69c2b068fc378daa952ba7f163c4a11628f55a4df523b3ef926020928587528684520360408620558060025403600255604051908152a3565b6040517fe450d38c00000000000000000000000000000000000000000000000000000000815273ffffffffffffffffffffffffffffffffffffffff919091166004820152602481019190915260448101829052606490fdfea264697066735822122005404ec0389ba9a92a3995b0c113ee85bc8ddd7f1c5f8d4b5d183528891f91d264736f6c63430008140033",
    "linkReferences": {}
  },
  "methodIdentifiers": {
    "BUCKET_MANAGER_ROLE()": "550d9964",
    "FACILITATOR_MANAGER_ROLE()": "433bef44",
    "addFacilitator(address,string,uint128)": "7fc24def",
    "allowance(address,address)": "dd62ed3e",
    "approve(address,uint256)": "095ea7b3",
    "balanceOf(address)": "70a08231",
    "burn(uint256)": "42966c68",
    "burnFrom(address,uint256)": "79cc6790",
    "decimals()": "313ce567",
    "getFacilitator(address)": "d46ec0ed",
    "getFacilitatorBucket(address)": "aa02f94a",
    "getFacilitatorsList()": "1ec90f2e",
    "getRoleAdmin(bytes32)": "248a9ca3",
    "grantRole(bytes32,address)": "2f2ff15d",
    "hasRole(bytes32,address)": "91d14854",
    "mint(address,uint256)": "40c10f19",
    "name()": "06fdde03",
    "removeFacilitator(address)": "a11812ba",
    "renounceRole(bytes32,address)": "36568abe",
    "revokeRole(bytes32,address)": "d547741f",
    "setFacilitatorBucketCapacity(address,uint128)": "af93df57",
    "symbol()": "95d89b41",
    "totalSupply()": "18160ddd",
    "transfer(address,uint256)": "a9059cbb",
    "transferFrom(address,address,uint256)": "23b872dd"
  },
  "id": 74
}