{
  "abi": [
    {
      "inputs": [],
      "stateMutability": "nonpayable",
      "type": "constructor"
    },
    {
      "inputs": [
        {
          "internalType": "address",
          "name": "sender",
          "type": "address"
        },
        {
          "internalType": "uint256",
          "name": "tokenId",
          "type": "uint256"
        },
        {
          "internalType": "address",
          "name": "owner",
          "type": "address"
        }
      ],
      "name": "ERC721IncorrectOwner",
      "type": "error"
    },
    {
      "inputs": [
        {
          "internalType": "address",
          "name": "operator",
          "type": "address"
        },
        {
          "internalType": "uint256",
          "name": "tokenId",
          "type": "uint256"
        }
      ],
      "name": "ERC721InsufficientApproval",
      "type": "error"
    },
    {
      "inputs": [
        {
          "internalType": "address",
          "name": "approver",
          "type": "address"
        }
      ],
      "name": "ERC721InvalidApprover",
      "type": "error"
    },
    {
      "inputs": [
        {
          "internalType": "address",
          "name": "operator",
          "type": "address"
        }
      ],
      "name": "ERC721InvalidOperator",
      "type": "error"
    },
    {
      "inputs": [
        {
          "internalType": "address",
          "name": "owner",
          "type": "address"
        }
      ],
      "name": "ERC721InvalidOwner",
      "type": "error"
    },
    {
      "inputs": [
        {
          "internalType": "address",
          "name": "receiver",
          "type": "address"
        }
      ],
      "name": "ERC721InvalidReceiver",
      "type": "error"
    },
    {
      "inputs": [
        {
          "internalType": "address",
          "name": "sender",
          "type": "address"
        }
      ],
      "name": "ERC721InvalidSender",
      "type": "error"
    },
    {
      "inputs": [
        {
          "internalType": "uint256",
          "name": "tokenId",
          "type": "uint256"
        }
      ],
      "name": "ERC721NonexistentToken",
      "type": "error"
    },
    {
      "anonymous": false,
      "inputs": [
        {
          "indexed": true,
          "internalType": "address",
          "name": "owner",
          "type": "address"
        },
        {
          "indexed": true,
          "internalType": "address",
          "name": "approved",
          "type": "address"
        },
        {
          "indexed": true,
          "internalType": "uint256",
          "name": "tokenId",
          "type": "uint256"
        }
      ],
      "name": "Approval",
      "type": "event"
    },
    {
      "anonymous": false,
      "inputs": [
        {
          "indexed": true,
          "internalType": "address",
          "name": "owner",
          "type": "address"
        },
        {
          "indexed": true,
          "internalType": "address",
          "name": "operator",
          "type": "address"
        },
        {
          "indexed": false,
          "internalType": "bool",
          "name": "approved",
          "type": "bool"
        }
      ],
      "name": "ApprovalForAll",
      "type": "event"
    },
    {
      "anonymous": false,
      "inputs": [
        {
          "indexed": true,
          "internalType": "uint256",
          "name": "tokenId",
          "type": "uint256"
        },
        {
          "indexed": false,
          "internalType": "address",
          "name": "recipient",
          "type": "address"
        },
        {
          "indexed": false,
          "internalType": "uint256",
          "name": "amount0",
          "type": "uint256"
        },
        {
          "indexed": false,
          "internalType": "uint256",
          "name": "amount1",
          "type": "uint256"
        }
      ],
      "name": "Collect",
      "type": "event"
    },
    {
      "anonymous": false,
      "inputs": [
        {
          "indexed": true,
          "internalType": "uint256",
          "name": "tokenId",
          "type": "uint256"
        },
        {
          "indexed": false,
          "internalType": "uint128",
          "name": "liquidity",
          "type": "uint128"
        },
        {
          "indexed": false,
          "internalType": "uint256",
          "name": "amount0",
          "type": "uint256"
        },
        {
          "indexed": false,
          "internalType": "uint256",
          "name": "amount1",
          "type": "uint256"
        }
      ],
      "name": "DecreaseLiquidity",
      "type": "event"
    },
    {
      "anonymous": false,
      "inputs": [
        {
          "indexed": true,
          "internalType": "uint256",
          "name": "tokenId",
          "type": "uint256"
        },
        {
          "indexed": false,
          "internalType": "uint128",
          "name": "liquidity",
          "type": "uint128"
        },
        {
          "indexed": false,
          "internalType": "uint256",
          "name": "amount0",
          "type": "uint256"
        },
        {
          "indexed": false,
          "internalType": "uint256",
          "name": "amount1",
          "type": "uint256"
        }
      ],
      "name": "IncreaseLiquidity",
      "type": "event"
    },
    {
      "anonymous": false,
      "inputs": [
        {
          "indexed": true,
          "internalType": "address",
          "name": "from",
          "type": "address"
        },
        {
          "indexed": true,
          "internalType": "address",
          "name": "to",
          "type": "address"
        },
        {
          "indexed": true,
          "internalType": "uint256",
          "name": "tokenId",
          "type": "uint256"
        }
      ],
      "name": "Transfer",
      "type": "event"
    },
    {
      "inputs": [],
      "name": "DOMAIN_SEPARATOR",
      "outputs": [
        {
          "internalType": "bytes32",
          "name": "",
          "type": "bytes32"
        }
      ],
      "stateMutability": "view",
      "type": "function"
    },
    {
      "inputs": [],
      "name": "PERMIT_TYPEHASH",
      "outputs": [
        {
          "internalType": "bytes32",
          "name": "",
          "type": "bytes32"
        }
      ],
      "stateMutability": "pure",
      "type": "function"
    },
    {
      "inputs": [],
      "name": "WETH9",
      "outputs": [
        {
          "internalType": "address",
          "name": "",
          "type": "address"
        }
      ],
      "stateMutability": "view",
      "type": "function"
    },
    {
      "inputs": [
        {
          "internalType": "address",
          "name": "to",
          "type": "address"
        },
        {
          "internalType": "uint256",
          "name": "tokenId",
          "type": "uint256"
        }
      ],
      "name": "approve",
      "outputs": [],
      "stateMutability": "nonpayable",
      "type": "function"
    },
    {
      "inputs": [
        {
          "internalType": "address",
          "name": "owner",
          "type": "address"
        }
      ],
      "name": "balanceOf",
      "outputs": [
        {
          "internalType": "uint256",
          "name": "",
          "type": "uint256"
        }
      ],
      "stateMutability": "view",
      "type": "function"
    },
    {
      "inputs": [
        {
          "internalType": "uint256",
          "name": "tokenId",
          "type": "uint256"
        }
      ],
      "name": "burn",
      "outputs": [],
      "stateMutability": "payable",
      "type": "function"
    },
    {
      "inputs": [
        {
          "components": [
            {
              "internalType": "uint256",
              "name": "tokenId",
              "type": "uint256"
            },
            {
              "internalType": "address",
              "name": "recipient",
              "type": "address"
            },
            {
              "internalType": "uint128",
              "name": "amount0Max",
              "type": "uint128"
            },
            {
              "internalType": "uint128",
              "name": "amount1Max",
              "type": "uint128"
            }
          ],
          "internalType": "struct INonfungiblePositionManager.CollectParams",
          "name": "params",
          "type": "tuple"
        }
      ],
      "name": "collect",
      "outputs": [
        {
          "internalType": "uint256",
          "name": "amount0",
          "type": "uint256"
        },
        {
          "internalType": "uint256",
          "name": "amount1",
          "type": "uint256"
        }
      ],
      "stateMutability": "payable",
      "type": "function"
    },
    {
      "inputs": [
        {
          "internalType": "address",
          "name": "token0",
          "type": "address"
        },
        {
          "internalType": "address",
          "name": "token1",
          "type": "address"
        },
        {
          "internalType": "uint24",
          "name": "fee",
          "type": "uint24"
        },
        {
          "internalType": "uint160",
          "name": "sqrtPriceX96",
          "type": "uint160"
        }
      ],
      "name": "createAndInitializePoolIfNecessary",
      "outputs": [
        {
          "internalType": "address",
          "name": "pool",
          "type": "address"
        }
      ],
      "stateMutability": "payable",
      "type": "function"
    },
    {
      "inputs": [
        {
          "components": [
            {
              "internalType": "uint256",
              "name": "tokenId",
              "type": "uint256"
            },
            {
              "internalType": "uint128",
              "name": "liquidity",
              "type": "uint128"
            },
            {
              "internalType": "uint256",
              "name": "amount0Min",
              "type": "uint256"
            },
            {
              "internalType": "uint256",
              "name": "amount1Min",
              "type": "uint256"
            },
            {
              "internalType": "uint256",
              "name": "deadline",
              "type": "uint256"
            }
          ],
          "internalType": "struct INonfungiblePositionManager.DecreaseLiquidityParams",
          "name": "params",
          "type": "tuple"
        }
      ],
      "name": "decreaseLiquidity",
      "outputs": [
        {
          "internalType": "uint256",
          "name": "amount0",
          "type": "uint256"
        },
        {
          "internalType": "uint256",
          "name": "amount1",
          "type": "uint256"
        }
      ],
      "stateMutability": "payable",
      "type": "function"
    },
    {
      "inputs": [],
      "name": "factory",
      "outputs": [
        {
          "internalType": "address",
          "name": "",
          "type": "address"
        }
      ],
      "stateMutability": "view",
      "type": "function"
    },
    {
      "inputs": [
        {
          "internalType": "uint256",
          "name": "tokenId",
          "type": "uint256"
        }
      ],
      "name": "getApproved",
      "outputs": [
        {
          "internalType": "address",
          "name": "",
          "type": "address"
        }
      ],
      "stateMutability": "view",
      "type": "function"
    },
    {
      "inputs": [
        {
          "components": [
            {
              "internalType": "uint256",
              "name": "tokenId",
              "type": "uint256"
            },
            {
              "internalType": "uint256",
              "name": "amount0Desired",
              "type": "uint256"
            },
            {
              "internalType": "uint256",
              "name": "amount1Desired",
              "type": "uint256"
            },
            {
              "internalType": "uint256",
              "name": "amount0Min",
              "type": "uint256"
            },
            {
              "internalType": "uint256",
              "name": "amount1Min",
              "type": "uint256"
            },
            {
              "internalType": "uint256",
              "name": "deadline",
              "type": "uint256"
            }
          ],
          "internalType": "struct INonfungiblePositionManager.IncreaseLiquidityParams",
          "name": "params",
          "type": "tuple"
        }
      ],
      "name": "increaseLiquidity",
      "outputs": [
        {
          "internalType": "uint128",
          "name": "liquidity",
          "type": "uint128"
        },
        {
          "internalType": "uint256",
          "name": "amount0",
          "type": "uint256"
        },
        {
          "internalType": "uint256",
          "name": "amount1",
          "type": "uint256"
        }
      ],
      "stateMutability": "payable",
      "type": "function"
    },
    {
      "inputs": [
        {
          "internalType": "address",
          "name": "owner",
          "type": "address"
        },
        {
          "internalType": "address",
          "name": "operator",
          "type": "address"
        }
      ],
      "name": "isApprovedForAll",
      "outputs": [
        {
          "internalType": "bool",
          "name": "",
          "type": "bool"
        }
      ],
      "stateMutability": "view",
      "type": "function"
    },
    {
      "inputs": [
        {
          "components": [
            {
              "internalType": "address",
              "name": "token0",
              "type": "address"
            },
            {
              "internalType": "address",
              "name": "token1",
              "type": "address"
            },
            {
              "internalType": "uint24",
              "name": "fee",
              "type": "uint24"
            },
            {
              "internalType": "int24",
              "name": "tickLower",
              "type": "int24"
            },
            {
              "internalType": "int24",
              "name": "tickUpper",
              "type": "int24"
            },
            {
              "internalType": "uint256",
              "name": "amount0Desired",
              "type": "uint256"
            },
            {
              "internalType": "uint256",
              "name": "amount1Desired",
              "type": "uint256"
            },
            {
              "internalType": "uint256",
              "name": "amount0Min",
              "type": "uint256"
            },
            {
              "internalType": "uint256",
              "name": "amount1Min",
              "type": "uint256"
            },
            {
              "internalType": "address",
              "name": "recipient",
              "type": "address"
            },
            {
              "internalType": "uint256",
              "name": "deadline",
              "type": "uint256"
            }
          ],
          "internalType": "struct INonfungiblePositionManager.MintParams",
          "name": "params",
          "type": "tuple"
        }
      ],
      "name": "mint",
      "outputs": [
        {
          "internalType": "uint256",
          "name": "tokenId",
          "type": "uint256"
        },
        {
          "internalType": "uint128",
          "name": "liquidity",
          "type": "uint128"
        },
        {
          "internalType": "uint256",
          "name": "amount0",
          "type": "uint256"
        },
        {
          "internalType": "uint256",
          "name": "amount1",
          "type": "uint256"
        }
      ],
      "stateMutability": "payable",
      "type": "function"
    },
    {
      "inputs": [],
      "name": "name",
      "outputs": [
        {
          "internalType": "string",
          "name": "",
          "type": "string"
        }
      ],
      "stateMutability": "view",
      "type": "function"
    },
    {
      "inputs": [
        {
          "internalType": "uint256",
          "name": "tokenId",
          "type": "uint256"
        }
      ],
      "name": "ownerOf",
      "outputs": [
        {
          "internalType": "address",
          "name": "",
          "type": "address"
        }
      ],
      "stateMutability": "view",
      "type": "function"
    },
    {
      "inputs": [
        {
          "internalType": "address",
          "name": "spender",
          "type": "address"
        },
        {
          "internalType": "uint256",
          "name": "tokenId",
          "type": "uint256"
        },
        {
          "internalType": "uint256",
          "name": "deadline",
          "type": "uint256"
        },
        {
          "internalType": "uint8",
          "name": "v",
          "type": "uint8"
        },
        {
          "internalType": "bytes32",
          "name": "r",
          "type": "bytes32"
        },
        {
          "internalType": "bytes32",
          "name": "s",
          "type": "bytes32"
        }
      ],
      "name": "permit",
      "outputs": [],
      "stateMutability": "payable",
      "type": "function"
    },
    {
      "inputs": [
        {
          "internalType": "uint256",
          "name": "tokenId",
          "type": "uint256"
        }
      ],
      "name": "positions",
      "outputs": [
        {
          "internalType": "uint96",
          "name": "nonce",
          "type": "uint96"
        },
        {
          "internalType": "address",
          "name": "operator",
          "type": "address"
        },
        {
          "internalType": "address",
          "name": "token0",
          "type": "address"
        },
        {
          "internalType": "address",
          "name": "token1",
          "type": "address"
        },
        {
          "internalType": "uint24",
          "name": "fee",
          "type": "uint24"
        },
        {
          "internalType": "int24",
          "name": "tickLower",
          "type": "int24"
        },
        {
          "internalType": "int24",
          "name": "tickUpper",
          "type": "int24"
        },
        {
          "internalType": "uint128",
          "name": "liquidity",
          "type": "uint128"
        },
        {
          "internalType": "uint256",
          "name": "feeGrowthInside0LastX128",
          "type": "uint256"
        },
        {
          "internalType": "uint256",
          "name": "feeGrowthInside1LastX128",
          "type": "uint256"
        },
        {
          "internalType": "uint128",
          "name": "tokensOwed0",
          "type": "uint128"
        },
        {
          "internalType": "uint128",
          "name": "tokensOwed1",
          "type": "uint128"
        }
      ],
      "stateMutability": "view",
      "type": "function"
    },
    {
      "inputs": [],
      "name": "refundETH",
      "outputs": [],
      "stateMutability": "payable",
      "type": "function"
    },
    {
      "inputs": [
        {
          "internalType": "address",
          "name": "to",
          "type": "address"
        }
      ],
      "name": "safeMint",
      "outputs": [],
      "stateMutability": "nonpayable",
      "type": "function"
    },
    {
      "inputs": [
        {
          "internalType": "address",
          "name": "from",
          "type": "address"
        },
        {
          "internalType": "address",
          "name": "to",
          "type": "address"
        },
        {
          "internalType": "uint256",
          "name": "tokenId",
          "type": "uint256"
        }
      ],
      "name": "safeTransferFrom",
      "outputs": [],
      "stateMutability": "nonpayable",
      "type": "function"
    },
    {
      "inputs": [
        {
          "internalType": "address",
          "name": "from",
          "type": "address"
        },
        {
          "internalType": "address",
          "name": "to",
          "type": "address"
        },
        {
          "internalType": "uint256",
          "name": "tokenId",
          "type": "uint256"
        },
        {
          "internalType": "bytes",
          "name": "data",
          "type": "bytes"
        }
      ],
      "name": "safeTransferFrom",
      "outputs": [],
      "stateMutability": "nonpayable",
      "type": "function"
    },
    {
      "inputs": [
        {
          "internalType": "address",
          "name": "operator",
          "type": "address"
        },
        {
          "internalType": "bool",
          "name": "approved",
          "type": "bool"
        }
      ],
      "name": "setApprovalForAll",
      "outputs": [],
      "stateMutability": "nonpayable",
      "type": "function"
    },
    {
      "inputs": [
        {
          "internalType": "bytes4",
          "name": "interfaceId",
          "type": "bytes4"
        }
      ],
      "name": "supportsInterface",
      "outputs": [
        {
          "internalType": "bool",
          "name": "",
          "type": "bool"
        }
      ],
      "stateMutability": "view",
      "type": "function"
    },
    {
      "inputs": [
        {
          "internalType": "address",
          "name": "token",
          "type": "address"
        },
        {
          "internalType": "uint256",
          "name": "amountMinimum",
          "type": "uint256"
        },
        {
          "internalType": "address",
          "name": "recipient",
          "type": "address"
        }
      ],
      "name": "sweepToken",
      "outputs": [],
      "stateMutability": "payable",
      "type": "function"
    },
    {
      "inputs": [],
      "name": "symbol",
      "outputs": [
        {
          "internalType": "string",
          "name": "",
          "type": "string"
        }
      ],
      "stateMutability": "view",
      "type": "function"
    },
    {
      "inputs": [
        {
          "internalType": "uint256",
          "name": "index",
          "type": "uint256"
        }
      ],
      "name": "tokenByIndex",
      "outputs": [
        {
          "internalType": "uint256",
          "name": "",
          "type": "uint256"
        }
      ],
      "stateMutability": "view",
      "type": "function"
    },
    {
      "inputs": [
        {
          "internalType": "address",
          "name": "owner",
          "type": "address"
        },
        {
          "internalType": "uint256",
          "name": "index",
          "type": "uint256"
        }
      ],
      "name": "tokenOfOwnerByIndex",
      "outputs": [
        {
          "internalType": "uint256",
          "name": "",
          "type": "uint256"
        }
      ],
      "stateMutability": "view",
      "type": "function"
    },
    {
      "inputs": [
        {
          "internalType": "uint256",
          "name": "tokenId",
          "type": "uint256"
        }
      ],
      "name": "tokenURI",
      "outputs": [
        {
          "internalType": "string",
          "name": "",
          "type": "string"
        }
      ],
      "stateMutability": "view",
      "type": "function"
    },
    {
      "inputs": [],
      "name": "totalSupply",
      "outputs": [
        {
          "internalType": "uint256",
          "name": "",
          "type": "uint256"
        }
      ],
      "stateMutability": "view",
      "type": "function"
    },
    {
      "inputs": [
        {
          "internalType": "address",
          "name": "from",
          "type": "address"
        },
        {
          "internalType": "address",
          "name": "to",
          "type": "address"
        },
        {
          "internalType": "uint256",
          "name": "tokenId",
          "type": "uint256"
        }
      ],
      "name": "transferFrom",
      "outputs": [],
      "stateMutability": "nonpayable",
      "type": "function"
    },
    {
      "inputs": [
        {
          "internalType": "uint256",
          "name": "amountMinimum",
          "type": "uint256"
        },
        {
          "internalType": "address",
          "name": "recipient",
          "type": "address"
        }
      ],
      "name": "unwrapWETH9",
      "outputs": [],
      "stateMutability": "payable",
      "type": "function"
    }
  ],
  "bytecode": {
    "object": "0x6080346200030a576001600160401b039060409080820183811182821017620002f4578252600781526020926626bcaa37b5b2b760c91b84830152825183810181811083821117620002f457845260038152624d544b60e81b85820152825190828211620002f45760008054926001958685811c95168015620002e9575b89861014620002d5578190601f9586811162000282575b5089908683116001146200021e57849262000212575b5050600019600383901b1c191690861b1781555b8151938411620001fe5784548581811c91168015620001f3575b88821014620001df5783811162000197575b5086928411600114620001315783949596509262000125575b5050600019600383901b1c191690821b1790555b516118a09081620003108239f35b01519050388062000103565b9190601f1984169685845280842093905b8882106200017f575050838596971062000165575b505050811b01905562000117565b015160001960f88460031b161c1916905538808062000157565b80878596829496860151815501950193019062000142565b8582528782208480870160051c8201928a8810620001d5575b0160051c019086905b828110620001c9575050620000ea565b838155018690620001b9565b92508192620001b0565b634e487b7160e01b82526022600452602482fd5b90607f1690620000d8565b634e487b7160e01b81526041600452602490fd5b015190503880620000aa565b8480528a85208994509190601f198416865b8d8282106200026b575050841162000251575b505050811b018155620000be565b015160001960f88460031b161c1916905538808062000243565b8385015186558c9790950194938401930162000230565b9091508380528984208680850160051c8201928c8610620002cb575b918a91869594930160051c01915b828110620002bc57505062000094565b8681558594508a9101620002ac565b925081926200029e565b634e487b7160e01b83526022600452602483fd5b94607f16946200007d565b634e487b7160e01b600052604160045260246000fd5b600080fdfe60806040908082526004908136101561001757600080fd5b600091823560e01c91826301ffc9a7146110e85750816306fdde0314610fff578163081812fc14610f99578163095ea7b314610e485781630c49ccbe14610e0f57816312210e8a14610de257816313ead56214610d6e57816318160ddd14610d35578163219f5d1714610cf557816323b872dd14610cdd5781632f745c5914610c9a57816330adf81f146103035781633644e5151461030357816340d097c3146108fa57816342842e0e146108cb57816342966c681461089d57816349404b7c146108675781634aa4a4fc146103035781634f6ccce71461082d5781636352211e146107d257816370a08231146107395781637ac2ff7b146106f657816388316456146106af57816395d89b411461054457816399fbab88146104c3578163a22cb465146103bf578163b88d4fde14610308578163c45a015514610303578163c87b56dd1461029357508063df2ab5bb1461023d578063e985e9c5146101c05763fc6f78651461018657600080fd5b60807ffffffffffffffffffffffffffffffffffffffffffffffffffffffffffffffffc3601126101bd578151908082526020820152f35b80fd5b50903461023957807ffffffffffffffffffffffffffffffffffffffffffffffffffffffffffffffffc3601126102395760ff816020936101fe611233565b61020661125b565b73ffffffffffffffffffffffffffffffffffffffff91821683526005875283832091168252855220549151911615158152f35b5080fd5b5060607ffffffffffffffffffffffffffffffffffffffffffffffffffffffffffffffffc3601126101bd57610270611233565b5060443573ffffffffffffffffffffffffffffffffffffffff8116036101bd5780f35b8284346102395760207ffffffffffffffffffffffffffffffffffffffffffffffffffffffffffffffffc360112610239576102d16102ff9335611640565b508181516102de81611318565b528051916102eb83611318565b8252519182916020835260208301906111d5565b0390f35b6112de565b905082346103bb5760807ffffffffffffffffffffffffffffffffffffffffffffffffffffffffffffffffc3601126103bb57610342611233565b61034a61125b565b60443591856064359567ffffffffffffffff87116102395736602388011215610239578601359561038661037d886113a4565b96519687611363565b868652366024888301011161023957866103b89760246020930183890137860101526103b38383836113de565b6116a1565b80f35b8280fd5b905082346103bb57807ffffffffffffffffffffffffffffffffffffffffffffffffffffffffffffffffc3601126103bb576103f8611233565b90602435918215158093036104bf5773ffffffffffffffffffffffffffffffffffffffff16928315610491575033845260056020528084208385526020528084207fffffffffffffffffffffffffffffffffffffffffffffffffffffffffffffff0081541660ff8416179055519081527f17307eab39ab6107e8899845ad3d59bd9653f200f220920489ca2b5937696c3160203392a380f35b8360249251917f5b08ba18000000000000000000000000000000000000000000000000000000008352820152fd5b8480fd5b8284346102395760207ffffffffffffffffffffffffffffffffffffffffffffffffffffffffffffffffc360112610239578161018092825192818452816020850152830152600160608301528060808301528060a08301528060c08301528060e0830152806101008301528061012083015280610140830152610160820152f35b8383346101bd57807ffffffffffffffffffffffffffffffffffffffffffffffffffffffffffffffffc3601126101bd578151918160019283549384811c918186169586156106a5575b6020968785108114610679578899509688969785829a5291826000146106345750506001146105d9575b5050506102ff92916105ca910385611363565b519282849384528301906111d5565b91908693508083527fb10e2d527612073b26eecdfd717e6a320cf44b4afac2b0732d9fcbe2b7fa0cf65b82841061061c57505050820101816105ca6102ff6105b7565b8054848a018601528895508794909301928101610603565b7fffffffffffffffffffffffffffffffffffffffffffffffffffffffffffffff00168782015293151560051b860190930193508492506105ca91506102ff90506105b7565b60248360228c7f4e487b7100000000000000000000000000000000000000000000000000000000835252fd5b92607f169261058d565b82846101607ffffffffffffffffffffffffffffffffffffffffffffffffffffffffffffffffc36011261023957816080928251928184528160208501528301526060820152f35b8260c07ffffffffffffffffffffffffffffffffffffffffffffffffffffffffffffffffc3601126101bd57610729611233565b5060643560ff8116036101bd5780f35b8383346101bd5760207ffffffffffffffffffffffffffffffffffffffffffffffffffffffffffffffffc3601126101bd5773ffffffffffffffffffffffffffffffffffffffff610787611233565b169283156107a45750806020938392526003845220549051908152f35b9060249251917f89c62b64000000000000000000000000000000000000000000000000000000008352820152fd5b8383346101bd5760207ffffffffffffffffffffffffffffffffffffffffffffffffffffffffffffffffc3601126101bd575073ffffffffffffffffffffffffffffffffffffffff61082560209335611640565b915191168152f35b8284346102395760207ffffffffffffffffffffffffffffffffffffffffffffffffffffffffffffffffc3601126102395751908152602090f35b82847ffffffffffffffffffffffffffffffffffffffffffffffffffffffffffffffffc3601126101bd5761089961125b565b5080f35b8260207ffffffffffffffffffffffffffffffffffffffffffffffffffffffffffffffffc3601126101bd5780f35b828434610239576103b8906108df3661127e565b919251926108ec84611318565b8584526103b38383836113de565b839150346103bb57602091827ffffffffffffffffffffffffffffffffffffffffffffffffffffffffffffffffc360112610bb657610936611233565b906006547fffffffffffffffffffffffffffffffffffffffffffffffffffffffffffffffff92838214610c6e576001820160065582519061097682611318565b87825273ffffffffffffffffffffffffffffffffffffffff94858216958615610c3f57868591828c5260028b52878c2054168015159384610bf0575b50818c5260038b52878c2060018154019055828c5260028b52878c20827fffffffffffffffffffffffff00000000000000000000000000000000000000008254161790557fddf252ad1be2c89b69c2b068fc378daa952ba7f163c4a11628f55a4df523b3ef8c80a4610bc1573b610a27578680f35b85610a7d9184959697989451809381927f150b7a020000000000000000000000000000000000000000000000000000000096878452338c85015288602485015260448401526080606484015260848301906111d5565b038186895af1839181610b65575b50610aff5750503d15610af7573d610aa2816113a4565b90610aaf84519283611363565b81528091863d92013e5b80519485610af15750506024935051917f64a0ae92000000000000000000000000000000000000000000000000000000008352820152fd5b85925001fd5b506060610ab9565b7fffffffff00000000000000000000000000000000000000000000000000000000919296501603610b37575050508180808080808680f35b6024935051917f64a0ae92000000000000000000000000000000000000000000000000000000008352820152fd5b9091508781813d8311610bba575b610b7d8183611363565b81010312610bb657517fffffffff0000000000000000000000000000000000000000000000000000000081168103610bb6579088610a8b565b8380fd5b503d610b73565b602486898651917f73c6ac6e000000000000000000000000000000000000000000000000000000008352820152fd5b610c2984600052600460205260406000207fffffffffffffffffffffffff00000000000000000000000000000000000000008154169055565b818d5260038c52888d209081540190558c6109b2565b6024888b8851917f64a0ae92000000000000000000000000000000000000000000000000000000008352820152fd5b6024876011877f4e487b7100000000000000000000000000000000000000000000000000000000835252fd5b82843461023957807ffffffffffffffffffffffffffffffffffffffffffffffffffffffffffffffffc3601126102395790602091610cd6611233565b5051908152f35b82346101bd576103b8610cef3661127e565b916113de565b828460c07ffffffffffffffffffffffffffffffffffffffffffffffffffffffffffffffffc36011261023957606091815191818352816020840152820152f35b82843461023957817ffffffffffffffffffffffffffffffffffffffffffffffffffffffffffffffffc3601126102395751908152602090f35b828460807ffffffffffffffffffffffffffffffffffffffffffffffffffffffffffffffffc36011261023957610da2611233565b50610dab61125b565b5060443562ffffff8116036102395760643573ffffffffffffffffffffffffffffffffffffffff8116036102395751908152602090f35b82807ffffffffffffffffffffffffffffffffffffffffffffffffffffffffffffffffc3601126101bd5780f35b505060a07ffffffffffffffffffffffffffffffffffffffffffffffffffffffffffffffffc3601126101bd578151908082526020820152f35b905082346103bb57807ffffffffffffffffffffffffffffffffffffffffffffffffffffffffffffffffc3601126103bb57610e81611233565b91602435610e8e81611640565b33151580610f79575b80610f44575b610f1557819073ffffffffffffffffffffffffffffffffffffffff809616958691167f8c5be1e5ebec7d5bd14f71427d1e84f3dd0314c0f7b2291e5b200ac8c7c3b9258880a484526020528220907fffffffffffffffffffffffff000000000000000000000000000000000000000082541617905580f35b83517fa9fbf51f0000000000000000000000000000000000000000000000000000000081523381850152602490fd5b5073ffffffffffffffffffffffffffffffffffffffff81168652600560205283862033875260205260ff848720541615610e9d565b503373ffffffffffffffffffffffffffffffffffffffff82161415610e97565b839150346103bb5760207ffffffffffffffffffffffffffffffffffffffffffffffffffffffffffffffffc3601126103bb57816020938273ffffffffffffffffffffffffffffffffffffffff9335610ff081611640565b50825285522054169051908152f35b8383346101bd57807ffffffffffffffffffffffffffffffffffffffffffffffffffffffffffffffffc3601126101bd5781519181825492600184811c918186169586156110de575b6020968785108114610679578899509688969785829a529182600014610634575050600114611083575050506102ff92916105ca910385611363565b91908693508280527f290decd9548b62a8d60345a988386fc84ba6bc95484008f6362f93160ef3e5635b8284106110c657505050820101816105ca6102ff6105b7565b8054848a0186015288955087949093019281016110ad565b92607f1692611047565b9150346103bb5760207ffffffffffffffffffffffffffffffffffffffffffffffffffffffffffffffffc3601126103bb57357fffffffff0000000000000000000000000000000000000000000000000000000081168091036103bb57602092507f80ac58cd0000000000000000000000000000000000000000000000000000000081149081156111ab575b8115611181575b5015158152f35b7f01ffc9a7000000000000000000000000000000000000000000000000000000009150148361117a565b7f5b5e139f0000000000000000000000000000000000000000000000000000000081149150611173565b919082519283825260005b84811061121f5750507fffffffffffffffffffffffffffffffffffffffffffffffffffffffffffffffe0601f8460006020809697860101520116010190565b6020818301810151848301820152016111e0565b6004359073ffffffffffffffffffffffffffffffffffffffff8216820361125657565b600080fd5b6024359073ffffffffffffffffffffffffffffffffffffffff8216820361125657565b7ffffffffffffffffffffffffffffffffffffffffffffffffffffffffffffffffc60609101126112565773ffffffffffffffffffffffffffffffffffffffff90600435828116810361125657916024359081168103611256579060443590565b346112565760007ffffffffffffffffffffffffffffffffffffffffffffffffffffffffffffffffc36011261125657602060405160008152f35b6020810190811067ffffffffffffffff82111761133457604052565b7f4e487b7100000000000000000000000000000000000000000000000000000000600052604160045260246000fd5b90601f7fffffffffffffffffffffffffffffffffffffffffffffffffffffffffffffffe0910116810190811067ffffffffffffffff82111761133457604052565b67ffffffffffffffff811161133457601f017fffffffffffffffffffffffffffffffffffffffffffffffffffffffffffffffe01660200190565b909173ffffffffffffffffffffffffffffffffffffffff80931692831561160f57600092828452826020956002875260409684888820541696879133151580611547575b509060027fddf252ad1be2c89b69c2b068fc378daa952ba7f163c4a11628f55a4df523b3ef92846114d9575b858352600381528b83206001815401905586835252898120847fffffffffffffffffffffffff000000000000000000000000000000000000000082541617905580a4169283830361149f5750505050565b6064945051927f64283d7b000000000000000000000000000000000000000000000000000000008452600484015260248301526044820152fd5b61151287600052600460205260406000207fffffffffffffffffffffffff00000000000000000000000000000000000000008154169055565b848352600381528b83207fffffffffffffffffffffffffffffffffffffffffffffffffffffffffffffffff815401905561144e565b919394509150806115ce575b1561156357859291879138611422565b8786886115995760249151907f7e2732890000000000000000000000000000000000000000000000000000000082526004820152fd5b60449151907f177e802f0000000000000000000000000000000000000000000000000000000082523360048301526024820152fd5b5033871480156115f3575b806115535750858252600481523385898420541614611553565b5086825260058152878220338352815260ff88832054166115d9565b60246040517f64a0ae9200000000000000000000000000000000000000000000000000000000815260006004820152fd5b80600052600260205273ffffffffffffffffffffffffffffffffffffffff60406000205416908115611670575090565b602490604051907f7e2732890000000000000000000000000000000000000000000000000000000082526004820152fd5b813b6116ae575b50505050565b73ffffffffffffffffffffffffffffffffffffffff949192939480931693604051937f150b7a0200000000000000000000000000000000000000000000000000000000928386523360048701521660248501526044840152608060648401528261171e60209660848301906111d5565b039285816000958187895af1849181611812575b506117aa575050503d6000146117a2573d61174c816113a4565b9061175a6040519283611363565b81528091843d92013e5b8051928361179d57602483604051907f64a0ae920000000000000000000000000000000000000000000000000000000082526004820152fd5b019050fd5b506060611764565b9092507fffffffff0000000000000000000000000000000000000000000000000000000091945016036117e15750388080806116a8565b602490604051907f64a0ae920000000000000000000000000000000000000000000000000000000082526004820152fd5b9091508681813d8311611863575b61182a8183611363565b810103126104bf57517fffffffff00000000000000000000000000000000000000000000000000000000811681036104bf579038611732565b503d61182056fea2646970667358221220794233e554c0e076b251a4d13b6e332aaae80fee077a1838b3634e48000b481f64736f6c63430008140033",
    "linkReferences": {}
  },
  "methodIdentifiers": {
    "DOMAIN_SEPARATOR()": "3644e515",
    "PERMIT_TYPEHASH()": "30adf81f",
    "WETH9()": "4aa4a4fc",
    "approve(address,uint256)": "095ea7b3",
    "balanceOf(address)": "70a08231",
    "burn(uint256)": "42966c68",
    "collect((uint256,address,uint128,uint128))": "fc6f7865",
    "createAndInitializePoolIfNecessary(address,address,uint24,uint160)": "13ead562",
    "decreaseLiquidity((uint256,uint128,uint256,uint256,uint256))": "0c49ccbe",
    "factory()": "c45a0155",
    "getApproved(uint256)": "081812fc",
    "increaseLiquidity((uint256,uint256,uint256,uint256,uint256,uint256))": "219f5d17",
    "isApprovedForAll(address,address)": "e985e9c5",
    "mint((address,address,uint24,int24,int24,uint256,uint256,uint256,uint256,address,uint256))": "88316456",
    "name()": "06fdde03",
    "ownerOf(uint256)": "6352211e",
    "permit(address,uint256,uint256,uint8,bytes32,bytes32)": "7ac2ff7b",
    "positions(uint256)": "99fbab88",
    "refundETH()": "12210e8a",
    "safeMint(address)": "40d097c3",
    "safeTransferFrom(address,address,uint256)": "42842e0e",
    "safeTransferFrom(address,address,uint256,bytes)": "b88d4fde",
    "setApprovalForAll(address,bool)": "a22cb465",
    "supportsInterface(bytes4)": "01ffc9a7",
    "sweepToken(address,uint256,address)": "df2ab5bb",
    "symbol()": "95d89b41",
    "tokenByIndex(uint256)": "4f6ccce7",
    "tokenOfOwnerByIndex(address,uint256)": "2f745c59",
    "tokenURI(uint256)": "c87b56dd",
    "totalSupply()": "18160ddd",
    "transferFrom(address,address,uint256)": "23b872dd",
    "unwrapWETH9(uint256,address)": "49404b7c"
  },
  "id": 63
}