{
  "abi": [
    {
      "inputs": [],
      "name": "currentMockPrice",
      "outputs": [
        {
          "internalType": "uint256",
          "name": "",
          "type": "uint256"
        }
      ],
      "stateMutability": "view",
      "type": "function"
    },
    {
      "inputs": [
        {
          "internalType": "contract IUniswapV3Pool",
          "name": "pool",
          "type": "address"
        },
        {
          "internalType": "int24",
          "name": "tickLower",
          "type": "int24"
        },
        {
          "internalType": "int24",
          "name": "tickUpper",
          "type": "int24"
        },
        {
          "internalType": "uint128",
          "name": "liquidity",
          "type": "uint128"
        },
        {
          "internalType": "uint32",
          "name": "uniV3OracleSecondsAgo",
          "type": "uint32"
        },
        {
          "internalType": "uint256",
          "name": "chainlinkPriceMaxAgeSecs",
          "type": "uint256"
        }
      ],
      "name": "quoteUSD",
      "outputs": [
        {
          "internalType": "uint256",
          "name": "valueUSD",
          "type": "uint256"
        }
      ],
      "stateMutability": "view",
      "type": "function"
    },
    {
      "inputs": [
        {
          "internalType": "uint256",
          "name": "x",
          "type": "uint256"
        }
      ],
      "name": "setMockedPrice",
      "outputs": [],
      "stateMutability": "nonpayable",
      "type": "function"
    }
  ],
  "bytecode": {
    "object": "0x608080604052346100165761018b908161001c8239f35b600080fdfe608080604052600436101561001357600080fd5b600090813560e01c908163059d8f971461011d5781639d025db61461007f575063a1e4dab11461004257600080fd5b3461007c57807ffffffffffffffffffffffffffffffffffffffffffffffffffffffffffffffffc36011261007c5760209054604051908152f35b80fd5b9050346101195760c07ffffffffffffffffffffffffffffffffffffffffffffffffffffffffffffffffc3601126101195760043573ffffffffffffffffffffffffffffffffffffffff811603610119576024358060020b03610119576044358060020b03610119576064356fffffffffffffffffffffffffffffffff8116036101195760843563ffffffff81160361011957602091548152f35b5080fd5b823461007c5760207ffffffffffffffffffffffffffffffffffffffffffffffffffffffffffffffffc36011261007c57600435815580f3fea2646970667358221220b49f8122bd28932c5729be00a5bed9b76c80c96e2f66dbdb3773fe76d5d275e064736f6c63430008140033",
    "linkReferences": {}
  },
  "methodIdentifiers": {
    "currentMockPrice()": "a1e4dab1",
    "quoteUSD(address,int24,int24,uint128,uint32,uint256)": "9d025db6",
    "setMockedPrice(uint256)": "059d8f97"
  },
  "id": 76
}