{
  "abi": [
    {
      "inputs": [],
      "name": "currentMockPrice",
      "outputs": [
        {
          "internalType": "uint256",
          "name": "",
          "type": "uint256"
        }
      ],
      "stateMutability": "view",
      "type": "function"
    },
    {
      "inputs": [
        {
          "internalType": "contract IUniswapV3Pool",
          "name": "pool",
          "type": "address"
        },
        {
          "internalType": "int24",
          "name": "tickLower",
          "type": "int24"
        },
        {
          "internalType": "int24",
          "name": "tickUpper",
          "type": "int24"
        },
        {
          "internalType": "uint128",
          "name": "liquidity",
          "type": "uint128"
        },
        {
          "internalType": "uint32",
          "name": "uniV3OracleSecondsAgo",
          "type": "uint32"
        },
        {
          "internalType": "uint256",
          "name": "chainlinkPriceMaxAgeSecs",
          "type": "uint256"
        }
      ],
      "name": "quoteUSD",
      "outputs": [
        {
          "internalType": "uint256",
          "name": "valueUSD",
          "type": "uint256"
        }
      ],
      "stateMutability": "view",
      "type": "function"
    },
    {
      "inputs": [
        {
          "internalType": "uint256",
          "name": "x",
          "type": "uint256"
        }
      ],
      "name": "setMockedPrice",
      "outputs": [],
      "stateMutability": "nonpayable",
      "type": "function"
    }
  ],
  "bytecode": {
    "object": "0x608060405234801561001057600080fd5b50610196806100206000396000f3fe608060405234801561001057600080fd5b50600436106100415760003560e01c8063059d8f97146100465780639d025db61461005b578063a1e4dab114610088575b600080fd5b610059610054366004610091565b600055565b005b6100766100693660046100c1565b6000549695505050505050565b60405190815260200160405180910390f35b61007660005481565b6000602082840312156100a357600080fd5b5035919050565b8035600281900b81146100bc57600080fd5b919050565b60008060008060008060c087890312156100da57600080fd5b86356001600160a01b03811681146100f157600080fd5b95506100ff602088016100aa565b945061010d604088016100aa565b935060608701356fffffffffffffffffffffffffffffffff8116811461013257600080fd5b9250608087013563ffffffff8116811461014b57600080fd5b8092505060a08701359050929550929550929556fea264697066735822122015b1e216da3b6a38d5fa5b5030a8a421890e3a4b6ab2cfdbad248fbcde63f7c664736f6c63430008150033",
    "linkReferences": {}
  },
  "methodIdentifiers": {
    "currentMockPrice()": "a1e4dab1",
    "quoteUSD(address,int24,int24,uint128,uint32,uint256)": "9d025db6",
    "setMockedPrice(uint256)": "059d8f97"
  },
  "id": 33
}