{
  "abi": [
    {
      "inputs": [
        {
          "internalType": "address",
          "name": "_uniswapFactory",
          "type": "address"
        },
        {
          "internalType": "address",
          "name": "_ghoTokenAddress",
          "type": "address"
        },
        {
          "internalType": "contract INonfungiblePositionManager",
          "name": "_nftPositionManager",
          "type": "address"
        },
        {
          "internalType": "contract ILPpriceOracle",
          "name": "_lpPriceOracle",
          "type": "address"
        }
      ],
      "stateMutability": "nonpayable",
      "type": "constructor"
    },
    {
      "inputs": [
        {
          "internalType": "uint256",
          "name": "nftId",
          "type": "uint256"
        }
      ],
      "name": "getMintAmount",
      "outputs": [
        {
          "internalType": "uint256",
          "name": "",
          "type": "uint256"
        }
      ],
      "stateMutability": "view",
      "type": "function"
    },
    {
      "inputs": [
        {
          "internalType": "address",
          "name": "token0",
          "type": "address"
        },
        {
          "internalType": "address",
          "name": "token1",
          "type": "address"
        },
        {
          "internalType": "uint24",
          "name": "fee",
          "type": "uint24"
        }
      ],
      "name": "getUniswapPool",
      "outputs": [
        {
          "internalType": "contract IUniswapV3Pool",
          "name": "",
          "type": "address"
        }
      ],
      "stateMutability": "view",
      "type": "function"
    },
    {
      "inputs": [
        {
          "internalType": "uint256",
          "name": "collateralNftId",
          "type": "uint256"
        }
      ],
      "name": "liquidate",
      "outputs": [],
      "stateMutability": "nonpayable",
      "type": "function"
    },
    {
      "inputs": [
        {
          "internalType": "uint256",
          "name": "collateralNftId",
          "type": "uint256"
        }
      ],
      "name": "mint",
      "outputs": [],
      "stateMutability": "nonpayable",
      "type": "function"
    }
  ],
  "bytecode": {
    "object": "0x608060405234801561001057600080fd5b506040516108c33803806108c383398101604081905261002f9161009a565b600180546001600160a01b039586166001600160a01b03199182161790915560008054948616948216949094179093556002805492851692841692909217909155600380549190931691161790556100f9565b6001600160a01b038116811461009757600080fd5b50565b600080600080608085870312156100b057600080fd5b84516100bb81610082565b60208601519094506100cc81610082565b60408601519093506100dd81610082565b60608601519092506100ee81610082565b939692955090935050565b6107bb806101086000396000f3fe608060405234801561001057600080fd5b506004361061004c5760003560e01c80632f1c2ed814610051578063415f1240146100815780639de2f79614610094578063a0712d68146100b5575b600080fd5b61006461005f36600461057b565b6100c8565b6040516001600160a01b0390911681526020015b60405180910390f35b61009261008f3660046105c6565b50565b005b6100a76100a23660046105c6565b6100f3565b604051908152602001610078565b6100926100c33660046105c6565b610298565b6001546000906100eb906001600160a01b03166100e6868686610401565b61046c565b949350505050565b6000806000806000806000806000806000806000600260009054906101000a90046001600160a01b03166001600160a01b03166399fbab888f6040518263ffffffff1660e01b815260040161014a91815260200190565b61018060405180830381865afa158015610168573d6000803e3d6000fd5b505050506040513d601f19601f8201168201806040525081019061018c9190610623565b9b509b509b509b509b509b509b509b509b509b509b509b506000600360009054906101000a90046001600160a01b03166001600160a01b0316639d025db66101d58d8d8d6100c8565b6040516001600160e01b031960e084901b1681526001600160a01b03909116600482015260028b810b60248301528a900b60448201526001600160801b038916606482015260286084820181905260a482015260c401602060405180830381865afa158015610248573d6000803e3d6000fd5b505050506040513d601f19601f8201168201806040525081019061026c9190610704565b9050600a61027b826008610733565b6102859190610750565b9f9e505050505050505050505050505050565b6002546040516323b872dd60e01b8152336004820152306024820152604481018390526001600160a01b03909116906323b872dd90606401600060405180830381600087803b1580156102ea57600080fd5b505af11580156102fe573d6000803e3d6000fd5b50505050600061030d826100f3565b33600081815260046020908152604080832080546001818101835582865293852001889055815180830190925293909252915492935091829161034f91610772565b67ffffffffffffffff90811682526001600160c01b03848116602093840152600086815260058452604080822086519690950151909216680100000000000000000294909216939093179091555490516340c10f1960e01b8152336004820152602481018390526001600160a01b03909116906340c10f1990604401600060405180830381600087803b1580156103e557600080fd5b505af11580156103f9573d6000803e3d6000fd5b505050505050565b6040805160608101825260008082526020820181905291810191909152826001600160a01b0316846001600160a01b0316111561043c579192915b50604080516060810182526001600160a01b03948516815292909316602083015262ffffff169181019190915290565b600081602001516001600160a01b031682600001516001600160a01b03161061049457600080fd5b815160208084015160408086015181516001600160a01b0395861681860152949092168482015262ffffff90911660608085019190915281518085038201815260808501909252815191909201206001600160f81b031960a08401529085901b6bffffffffffffffffffffffff191660a183015260b58201527fa598dd2fba360510c5a8f02f44423a4468e902df5857dbce3ca162a43a3a31ff60d582015260f50160408051601f1981840301815291905280516020909101209392505050565b6001600160a01b038116811461008f57600080fd5b62ffffff8116811461008f57600080fd5b60008060006060848603121561059057600080fd5b833561059b81610555565b925060208401356105ab81610555565b915060408401356105bb8161056a565b809150509250925092565b6000602082840312156105d857600080fd5b5035919050565b80516105ea81610555565b919050565b80516105ea8161056a565b8051600281900b81146105ea57600080fd5b80516001600160801b03811681146105ea57600080fd5b6000806000806000806000806000806000806101808d8f03121561064657600080fd5b8c516bffffffffffffffffffffffff8116811461066257600080fd5b9b5061067060208e016105df565b9a5061067e60408e016105df565b995061068c60608e016105df565b985061069a60808e016105ef565b97506106a860a08e016105fa565b96506106b660c08e016105fa565b95506106c460e08e0161060c565b94506101008d015193506101208d015192506106e36101408e0161060c565b91506106f26101608e0161060c565b90509295989b509295989b509295989b565b60006020828403121561071657600080fd5b5051919050565b634e487b7160e01b600052601160045260246000fd5b808202811582820484141761074a5761074a61071d565b92915050565b60008261076d57634e487b7160e01b600052601260045260246000fd5b500490565b8181038181111561074a5761074a61071d56fea2646970667358221220d5bce6850d9068829b3778e0ebf6a89b38a65ad0351824870631db76fe73ab1f64736f6c63430008150033",
    "linkReferences": {}
  },
  "methodIdentifiers": {
    "getMintAmount(uint256)": "9de2f796",
    "getUniswapPool(address,address,uint24)": "2f1c2ed8",
    "liquidate(uint256)": "415f1240",
    "mint(uint256)": "a0712d68"
  },
  "id": 26
}