{
  "abi": [
    {
      "inputs": [
        {
          "internalType": "address",
          "name": "_uniswapFactory",
          "type": "address"
        },
        {
          "internalType": "address",
          "name": "_ghoTokenAddress",
          "type": "address"
        },
        {
          "internalType": "contract INonfungiblePositionManager",
          "name": "_nftPositionManager",
          "type": "address"
        },
        {
          "internalType": "contract ILPpriceOracle",
          "name": "_lpPriceOracle",
          "type": "address"
        }
      ],
      "stateMutability": "nonpayable",
      "type": "constructor"
    },
    {
      "inputs": [
        {
          "internalType": "uint256",
          "name": "collateralNftId",
          "type": "uint256"
        }
      ],
      "name": "close",
      "outputs": [],
      "stateMutability": "nonpayable",
      "type": "function"
    },
    {
      "inputs": [
        {
          "internalType": "uint256",
          "name": "nftId",
          "type": "uint256"
        }
      ],
      "name": "getPositionWorth",
      "outputs": [
        {
          "internalType": "uint256",
          "name": "",
          "type": "uint256"
        }
      ],
      "stateMutability": "view",
      "type": "function"
    },
    {
      "inputs": [
        {
          "internalType": "address",
          "name": "token0",
          "type": "address"
        },
        {
          "internalType": "address",
          "name": "token1",
          "type": "address"
        },
        {
          "internalType": "uint24",
          "name": "fee",
          "type": "uint24"
        }
      ],
      "name": "getUniswapPool",
      "outputs": [
        {
          "internalType": "contract IUniswapV3Pool",
          "name": "",
          "type": "address"
        }
      ],
      "stateMutability": "view",
      "type": "function"
    },
    {
      "inputs": [
        {
          "internalType": "uint256",
          "name": "collateralNftId",
          "type": "uint256"
        }
      ],
      "name": "liquidate",
      "outputs": [],
      "stateMutability": "nonpayable",
      "type": "function"
    },
    {
      "inputs": [
        {
          "internalType": "uint256",
          "name": "collateralNftId",
          "type": "uint256"
        }
      ],
      "name": "mint",
      "outputs": [],
      "stateMutability": "nonpayable",
      "type": "function"
    },
    {
      "inputs": [
        {
          "internalType": "address",
          "name": "",
          "type": "address"
        },
        {
          "internalType": "address",
          "name": "",
          "type": "address"
        },
        {
          "internalType": "uint256",
          "name": "",
          "type": "uint256"
        },
        {
          "internalType": "bytes",
          "name": "",
          "type": "bytes"
        }
      ],
      "name": "onERC721Received",
      "outputs": [
        {
          "internalType": "bytes4",
          "name": "",
          "type": "bytes4"
        }
      ],
      "stateMutability": "nonpayable",
      "type": "function"
    }
  ],
  "bytecode": {
    "object": "0x6080346100bd57601f61124038819003918201601f19168301916001600160401b038311848410176100c2578084926080946040528339810103126100bd57610047816100d8565b610053602083016100d8565b604083015190926001600160a01b03808316929091908390036100bd5760600151938185168095036100bd578160018060a01b0319941684600154161760015516826000541617600055816002541617600255600354161760035560405161115390816100ed8239f35b600080fd5b634e487b7160e01b600052604160045260246000fd5b51906001600160a01b03821682036100bd5756fe608060409080825260048036101561001657600080fd5b600091823560e01c9081630aebeb4e146108f157508063150b7a02146107da5780632f1c2ed81461075d578063415f1240146103c55780636339fabe1461037f5763a0712d681461006657600080fd5b3461037b5760207ffffffffffffffffffffffffffffffffffffffffffffffffffffffffffffffffc36011261037b5780359273ffffffffffffffffffffffffffffffffffffffff918260025416803b156102d15782517f23b872dd00000000000000000000000000000000000000000000000000000000815233838201908152306020820152604081018890529091869183919082908490829060600103925af1801561037157908591610359575b505061012085610ef9565b611f409081810291818304149015171561032d5761271090049233855281602052828520805490680100000000000000008210156103015761016c82899260016101a295018155610cb6565b9091907fffffffffffffffffffffffffffffffffffffffffffffffffffffffffffffffff83549160031b92831b921b1916179055565b33855281602052828520547fffffffffffffffffffffffffffffffffffffffffffffffffffffffffffffffff81019081116102d557600186978551926101e784610be2565b33845267ffffffffffffffff6020850191168152868401918883528952600560205284878a209451167fffffffff000000000000000000000000000000000000000000000000000000007bffffffffffffffff00000000000000000000000000000000000000008654935160a01b169216171783555191015584541692833b156102d1576044859283855196879485937f40c10f19000000000000000000000000000000000000000000000000000000008552339085015260248401525af19081156102c857506102b55750f35b6102be90610c2d565b6102c55780f35b80fd5b513d84823e3d90fd5b8480fd5b6024866011857f4e487b7100000000000000000000000000000000000000000000000000000000835252fd5b6024876041867f4e487b7100000000000000000000000000000000000000000000000000000000835252fd5b6024856011847f4e487b7100000000000000000000000000000000000000000000000000000000835252fd5b61036290610c2d565b61036d578338610115565b8380fd5b83513d87823e3d90fd5b5080fd5b509190346102c55760207ffffffffffffffffffffffffffffffffffffffffffffffffffffffffffffffffc3601126102c557506103be60209235610ef9565b9051908152f35b503461037b57602092837ffffffffffffffffffffffffffffffffffffffffffffffffffffffffffffffffc36011261075957813561040281610ef9565b818552600586528285209083519161041983610be2565b8054918573ffffffffffffffffffffffffffffffffffffffff94600167ffffffffffffffff8787169687845260a01c1694858d84015201549182910152612af89081810291818304148115171561064e579085949392918997968b54168c8c8b5192838092817f23b872dd000000000000000000000000000000000000000000000000000000009e8f8252883033928401926104df9360409194939294606082019573ffffffffffffffffffffffffffffffffffffffff80921683521660208201520152565b03925af1801561074f57610722575b50858b541690813b1561071e578b9060248c838d5195869485937f42966c680000000000000000000000000000000000000000000000000000000085528401525af1801561071457908b916106fc575b505061271090041061067a578188528689528588208054907fffffffffffffffffffffffffffffffffffffffffffffffffffffffffffffffff820191821161064e5789896105a8829d958b610599600599976105e397610cb6565b95905494888252895220610cb6565b91909260031b1c907fffffffffffffffffffffffffffffffffffffffffffffffffffffffffffffffff83549160031b92831b921b1916179055565b88528681526105f3868920610cfd565b8388525260006001858820888155015560025416803b1561064a57835192835230948301948552336020860152604085019190915290928491849182908490829060600103925af19081156102c857506102b55750f35b8580fd5b60248a60118b7f4e487b7100000000000000000000000000000000000000000000000000000000835252fd5b6084878a8851917f08c379a0000000000000000000000000000000000000000000000000000000008352820152602e60248201527f4c504d6f6e65793a206865616c74687920706f736974696f6e2063616e6e6f7460448201527f206265206c6971756964617465640000000000000000000000000000000000006064820152fd5b61070590610c2d565b61071057893861053e565b8980fd5b89513d8d823e3d90fd5b8b80fd5b610741908d803d10610748575b6107398183610c5d565b810190610c9e565b50386104ee565b503d61072f565b8a513d8e823e3d90fd5b8280fd5b82843461037b5760607ffffffffffffffffffffffffffffffffffffffffffffffffffffffffffffffffc36011261037b57610796610b97565b61079e610bbf565b906044359362ffffff851685036102c5575060209373ffffffffffffffffffffffffffffffffffffffff926107d292610d74565b915191168152f35b509190346102c55760807ffffffffffffffffffffffffffffffffffffffffffffffffffffffffffffffffc3601126102c557610814610b97565b5061081d610bbf565b506064359267ffffffffffffffff90818511610759573660238601121561075957848101359182116108c5575082519361087f60207fffffffffffffffffffffffffffffffffffffffffffffffffffffffffffffffe0601f8501160186610c5d565b8185523660248383010111610759579060209481602487940184830137010152517f150b7a02000000000000000000000000000000000000000000000000000000008152f35b8260416024927f4e487b7100000000000000000000000000000000000000000000000000000000835252fd5b9390503461075957602093847ffffffffffffffffffffffffffffffffffffffffffffffffffffffffffffffffc36011261036d578235908185526005865282852061093b82610be2565b83815473ffffffffffffffffffffffffffffffffffffffff93600167ffffffffffffffff8684169384845260a01c1694858c840152015492839101523388528689523303610b1557865485517f23b872dd0000000000000000000000000000000000000000000000000000000080825233828a01908152306020820152604081018590529096959493928b91839187169082908d90829060600103925af18015610b0b57610aee575b508288541690813b15610aea57889160248392895194859384927f42966c680000000000000000000000000000000000000000000000000000000084528d8401525af18015610ae057610acd575b503387528588528487208054907fffffffffffffffffffffffffffffffffffffffffffffffffffffffffffffffff8201918211610aa1576105a8600593610a7e8b9c94610a9094610cb6565b92905491338d528b86528a8d20610cb6565b3388528681526105f3868920610cfd565b60248960118a7f4e487b7100000000000000000000000000000000000000000000000000000000835252fd5b610ad990979197610c2d565b9538610a32565b86513d8a823e3d90fd5b8880fd5b610b04908a3d8c11610748576107398183610c5d565b50386109e4565b87513d8b823e3d90fd5b608486898751917f08c379a0000000000000000000000000000000000000000000000000000000008352820152602b60248201527f4c504d6f6e65793a2063616c6c6572206973206e6f7420746865206f776e657260448201527f206f6620746865204e46540000000000000000000000000000000000000000006064820152fd5b6004359073ffffffffffffffffffffffffffffffffffffffff82168203610bba57565b600080fd5b6024359073ffffffffffffffffffffffffffffffffffffffff82168203610bba57565b6060810190811067ffffffffffffffff821117610bfe57604052565b7f4e487b7100000000000000000000000000000000000000000000000000000000600052604160045260246000fd5b67ffffffffffffffff8111610bfe57604052565b6080810190811067ffffffffffffffff821117610bfe57604052565b90601f7fffffffffffffffffffffffffffffffffffffffffffffffffffffffffffffffe0910116810190811067ffffffffffffffff821117610bfe57604052565b90816020910312610bba57518015158103610bba5790565b8054821015610cce5760005260206000200190600090565b7f4e487b7100000000000000000000000000000000000000000000000000000000600052603260045260246000fd5b8054908115610d45577fffffffffffffffffffffffffffffffffffffffffffffffffffffffffffffffff80920191610d358383610cb6565b909182549160031b1b1916905555565b7f4e487b7100000000000000000000000000000000000000000000000000000000600052603160045260246000fd5b916001549183918160409384916000838051610d8f81610be2565b828152826020820152015273ffffffffffffffffffffffffffffffffffffffff9788821689821611610ea2575b505062ffffff8780845193610dd085610be2565b1695868452169384602084015216918291015281831015610bba578351916020830193845284830152606082015260608152610e0b81610c41565b5190209051907fffffffffffffffffffffffffffffffffffffffff00000000000000000000000060208301937fff00000000000000000000000000000000000000000000000000000000000000855260601b16602183015260358201527fa598dd2fba360510c5a8f02f44423a4468e902df5857dbce3ca162a43a3a31ff605582015260558152610e9b81610c41565b5190201690565b945090503880610dbc565b519073ffffffffffffffffffffffffffffffffffffffff82168203610bba57565b51908160020b8203610bba57565b51906fffffffffffffffffffffffffffffffff82168203610bba57565b73ffffffffffffffffffffffffffffffffffffffff8060025416916040519283917f99fbab8800000000000000000000000000000000000000000000000000000000835260048301528160246101809384935afa801561102757600090818290839684958594611033575b5050859492610f8f60c495936fffffffffffffffffffffffffffffffff936020996003541695610d74565b9360405198899788967f9d025db600000000000000000000000000000000000000000000000000000000885216600487015260020b602486015260020b604485015216606483015260786084830152602860a48301525afa90811561102757600091610ff9575090565b906020823d821161101f575b8161101260209383610c5d565b810103126102c557505190565b3d9150611005565b6040513d6000823e3d90fd5b949750945050505081813d8311611116575b61104f8183610c5d565b810103126107595780516bffffffffffffffffffffffff8116036107595761107960208201610ead565b5061108660408201610ead565b9261109360608301610ead565b9060808301519062ffffff821682036102c557509160c4916fffffffffffffffffffffffffffffffff60209594610f8f6110cf60a08601610ece565b6110db60c08701610ece565b996111036101606110ee60e08a01610edc565b986110fc6101408201610edc565b5001610edc565b5094929099979850939550819250610f64565b503d61104556fea2646970667358221220d873de4c6532df1f4f67a44eaf7a90149abd3491f2bb8082c31fe95d4da1441364736f6c63430008140033",
    "linkReferences": {}
  },
  "methodIdentifiers": {
    "close(uint256)": "0aebeb4e",
    "getPositionWorth(uint256)": "6339fabe",
    "getUniswapPool(address,address,uint24)": "2f1c2ed8",
    "liquidate(uint256)": "415f1240",
    "mint(uint256)": "a0712d68",
    "onERC721Received(address,address,uint256,bytes)": "150b7a02"
  },
  "id": 58
}